{
  "_format": "hh-sol-artifact-1",
  "contractName": "CrowdFunding",
  "sourceName": "contracts/CrowdFunding.sol",
  "abi": [
    {
      "inputs": [
        {
          "internalType": "uint256",
          "name": "campaignID",
          "type": "uint256"
        }
      ],
      "name": "contribute",
      "outputs": [],
      "stateMutability": "payable",
      "type": "function"
    },
    {
      "inputs": [
        {
          "internalType": "string",
          "name": "title",
          "type": "string"
        },
        {
          "internalType": "string",
          "name": "description",
          "type": "string"
        },
        {
          "internalType": "uint256",
          "name": "target",
          "type": "uint256"
        },
        {
          "internalType": "uint256",
          "name": "deadline",
          "type": "uint256"
        }
      ],
      "name": "createCampaign",
      "outputs": [
        {
          "internalType": "uint256",
          "name": "",
          "type": "uint256"
        }
      ],
      "stateMutability": "nonpayable",
      "type": "function"
    },
    {
      "inputs": [],
      "name": "getCampaigns",
      "outputs": [
        {
          "components": [
            {
              "internalType": "address",
              "name": "owner",
              "type": "address"
            },
            {
              "internalType": "string",
              "name": "title",
              "type": "string"
            },
            {
              "internalType": "string",
              "name": "description",
              "type": "string"
            },
            {
              "internalType": "uint256",
              "name": "target",
              "type": "uint256"
            },
            {
              "internalType": "uint256",
              "name": "deadline",
              "type": "uint256"
            },
            {
              "internalType": "uint256",
              "name": "amountCollected",
              "type": "uint256"
            },
            {
              "internalType": "address[]",
              "name": "contributors",
              "type": "address[]"
            },
            {
              "internalType": "uint256[]",
              "name": "contributions",
              "type": "uint256[]"
            }
          ],
          "internalType": "struct CrowdFunding.Campaign[]",
          "name": "",
          "type": "tuple[]"
        }
      ],
      "stateMutability": "view",
      "type": "function"
    },
    {
      "inputs": [
        {
          "internalType": "uint256",
          "name": "campaignID",
          "type": "uint256"
        }
      ],
      "name": "getContributors",
      "outputs": [
        {
          "internalType": "address[]",
          "name": "",
          "type": "address[]"
        },
        {
          "internalType": "uint256[]",
          "name": "",
          "type": "uint256[]"
        }
      ],
      "stateMutability": "view",
      "type": "function"
    },
    {
      "inputs": [],
      "name": "numCampaigns",
      "outputs": [
        {
          "internalType": "uint256",
          "name": "",
          "type": "uint256"
        }
      ],
      "stateMutability": "view",
      "type": "function"
    }
  ],
  "bytecode": "0x60806040526000600155348015601457600080fd5b5061162e806100246000396000f3fe60806040526004361061004a5760003560e01c80632c0f7b6f1461004f5780633c1ab00f1461007a578063a318f269146100b8578063a6b03633146100f5578063c1cbbca714610120575b600080fd5b34801561005b57600080fd5b5061006461013c565b60405161007191906108f3565b60405180910390f35b34801561008657600080fd5b506100a1600480360381019061009c919061094e565b610142565b6040516100af929190610b29565b60405180910390f35b3480156100c457600080fd5b506100df60048036038101906100da9190610ca6565b610252565b6040516100ec91906108f3565b60405180910390f35b34801561010157600080fd5b5061010a610361565b6040516101179190611029565b60405180910390f35b61013a6004803603810190610135919061094e565b610699565b005b60015481565b606080600080848152602001908152602001600020600601600080858152602001908152602001600020600701818054806020026020016040519081016040528092919081815260200182805480156101f057602002820191906000526020600020905b8160009054906101000a900473ffffffffffffffffffffffffffffffffffffffff1673ffffffffffffffffffffffffffffffffffffffff16815260200190600101908083116101a6575b505050505091508080548060200260200160405190810160405280929190818152602001828054801561024257602002820191906000526020600020905b81548152602001906001019080831161022e575b5050505050905091509150915091565b60008060008060015481526020019081526020016000209050338160000160006101000a81548173ffffffffffffffffffffffffffffffffffffffff021916908373ffffffffffffffffffffffffffffffffffffffff160217905550858160010190816102bf9190611257565b50848160020190816102d19190611257565b5083816003018190555042831161031d576040517f08c379a000000000000000000000000000000000000000000000000000000000815260040161031490611386565b60405180910390fd5b8281600401819055506000816005018190555060016000815480929190610343906113d5565b919050555060018054610356919061141d565b915050949350505050565b6060600060015467ffffffffffffffff81111561038157610380610b7b565b5b6040519080825280602002602001820160405280156103ba57816020015b6103a761087f565b81526020019060019003908161039f5790505b50905060005b60015481101561069157600080828152602001908152602001600020604051806101000160405290816000820160009054906101000a900473ffffffffffffffffffffffffffffffffffffffff1673ffffffffffffffffffffffffffffffffffffffff1673ffffffffffffffffffffffffffffffffffffffff16815260200160018201805461044e9061107a565b80601f016020809104026020016040519081016040528092919081815260200182805461047a9061107a565b80156104c75780601f1061049c576101008083540402835291602001916104c7565b820191906000526020600020905b8154815290600101906020018083116104aa57829003601f168201915b505050505081526020016002820180546104e09061107a565b80601f016020809104026020016040519081016040528092919081815260200182805461050c9061107a565b80156105595780601f1061052e57610100808354040283529160200191610559565b820191906000526020600020905b81548152906001019060200180831161053c57829003601f168201915b505050505081526020016003820154815260200160048201548152602001600582015481526020016006820180548060200260200160405190810160405280929190818152602001828054801561060557602002820191906000526020600020905b8160009054906101000a900473ffffffffffffffffffffffffffffffffffffffff1673ffffffffffffffffffffffffffffffffffffffff16815260200190600101908083116105bb575b505050505081526020016007820180548060200260200160405190810160405280929190818152602001828054801561065d57602002820191906000526020600020905b815481526020019060010190808311610649575b50505050508152505082828151811061067957610678611451565b5b602002602001018190525080806001019150506103c0565b508091505090565b60008060008381526020019081526020016000209050806004015442106106f5576040517f08c379a00000000000000000000000000000000000000000000000000000000081526004016106ec906114cc565b60405180910390fd5b60003411610738576040517f08c379a000000000000000000000000000000000000000000000000000000000815260040161072f9061155e565b60405180910390fd5b80600601339080600181540180825580915050600190039060005260206000200160009091909190916101000a81548173ffffffffffffffffffffffffffffffffffffffff021916908373ffffffffffffffffffffffffffffffffffffffff1602179055508060070134908060018154018082558091505060019003906000526020600020016000909190919091505560008160000160009054906101000a900473ffffffffffffffffffffffffffffffffffffffff1673ffffffffffffffffffffffffffffffffffffffff1634604051610812906115af565b60006040518083038185875af1925050503d806000811461084f576040519150601f19603f3d011682016040523d82523d6000602084013e610854565b606091505b50509050801561087a573482600501600082825461087291906115c4565b925050819055505b505050565b604051806101000160405280600073ffffffffffffffffffffffffffffffffffffffff168152602001606081526020016060815260200160008152602001600081526020016000815260200160608152602001606081525090565b6000819050919050565b6108ed816108da565b82525050565b600060208201905061090860008301846108e4565b92915050565b6000604051905090565b600080fd5b600080fd5b61092b816108da565b811461093657600080fd5b50565b60008135905061094881610922565b92915050565b60006020828403121561096457610963610918565b5b600061097284828501610939565b91505092915050565b600081519050919050565b600082825260208201905092915050565b6000819050602082019050919050565b600073ffffffffffffffffffffffffffffffffffffffff82169050919050565b60006109d2826109a7565b9050919050565b6109e2816109c7565b82525050565b60006109f483836109d9565b60208301905092915050565b6000602082019050919050565b6000610a188261097b565b610a228185610986565b9350610a2d83610997565b8060005b83811015610a5e578151610a4588826109e8565b9750610a5083610a00565b925050600181019050610a31565b5085935050505092915050565b600081519050919050565b600082825260208201905092915050565b6000819050602082019050919050565b610aa0816108da565b82525050565b6000610ab28383610a97565b60208301905092915050565b6000602082019050919050565b6000610ad682610a6b565b610ae08185610a76565b9350610aeb83610a87565b8060005b83811015610b1c578151610b038882610aa6565b9750610b0e83610abe565b925050600181019050610aef565b5085935050505092915050565b60006040820190508181036000830152610b438185610a0d565b90508181036020830152610b578184610acb565b90509392505050565b600080fd5b600080fd5b6000601f19601f8301169050919050565b7f4e487b7100000000000000000000000000000000000000000000000000000000600052604160045260246000fd5b610bb382610b6a565b810181811067ffffffffffffffff82111715610bd257610bd1610b7b565b5b80604052505050565b6000610be561090e565b9050610bf18282610baa565b919050565b600067ffffffffffffffff821115610c1157610c10610b7b565b5b610c1a82610b6a565b9050602081019050919050565b82818337600083830152505050565b6000610c49610c4484610bf6565b610bdb565b905082815260208101848484011115610c6557610c64610b65565b5b610c70848285610c27565b509392505050565b600082601f830112610c8d57610c8c610b60565b5b8135610c9d848260208601610c36565b91505092915050565b60008060008060808587031215610cc057610cbf610918565b5b600085013567ffffffffffffffff811115610cde57610cdd61091d565b5b610cea87828801610c78565b945050602085013567ffffffffffffffff811115610d0b57610d0a61091d565b5b610d1787828801610c78565b9350506040610d2887828801610939565b9250506060610d3987828801610939565b91505092959194509250565b600081519050919050565b600082825260208201905092915050565b6000819050602082019050919050565b600081519050919050565b600082825260208201905092915050565b60005b83811015610dab578082015181840152602081019050610d90565b60008484015250505050565b6000610dc282610d71565b610dcc8185610d7c565b9350610ddc818560208601610d8d565b610de581610b6a565b840191505092915050565b600082825260208201905092915050565b6000610e0c8261097b565b610e168185610df0565b9350610e2183610997565b8060005b83811015610e52578151610e3988826109e8565b9750610e4483610a00565b925050600181019050610e25565b5085935050505092915050565b600082825260208201905092915050565b6000610e7b82610a6b565b610e858185610e5f565b9350610e9083610a87565b8060005b83811015610ec1578151610ea88882610aa6565b9750610eb383610abe565b925050600181019050610e94565b5085935050505092915050565b600061010083016000830151610ee760008601826109d9565b5060208301518482036020860152610eff8282610db7565b91505060408301518482036040860152610f198282610db7565b9150506060830151610f2e6060860182610a97565b506080830151610f416080860182610a97565b5060a0830151610f5460a0860182610a97565b5060c083015184820360c0860152610f6c8282610e01565b91505060e083015184820360e0860152610f868282610e70565b9150508091505092915050565b6000610f9f8383610ece565b905092915050565b6000602082019050919050565b6000610fbf82610d45565b610fc98185610d50565b935083602082028501610fdb85610d61565b8060005b858110156110175784840389528151610ff88582610f93565b945061100383610fa7565b925060208a01995050600181019050610fdf565b50829750879550505050505092915050565b600060208201905081810360008301526110438184610fb4565b905092915050565b7f4e487b7100000000000000000000000000000000000000000000000000000000600052602260045260246000fd5b6000600282049050600182168061109257607f821691505b6020821081036110a5576110a461104b565b5b50919050565b60008190508160005260206000209050919050565b60006020601f8301049050919050565b600082821b905092915050565b60006008830261110d7fffffffffffffffffffffffffffffffffffffffffffffffffffffffffffffffff826110d0565b61111786836110d0565b95508019841693508086168417925050509392505050565b6000819050919050565b600061115461114f61114a846108da565b61112f565b6108da565b9050919050565b6000819050919050565b61116e83611139565b61118261117a8261115b565b8484546110dd565b825550505050565b600090565b61119761118a565b6111a2818484611165565b505050565b5b818110156111c6576111bb60008261118f565b6001810190506111a8565b5050565b601f82111561120b576111dc816110ab565b6111e5846110c0565b810160208510156111f4578190505b611208611200856110c0565b8301826111a7565b50505b505050565b600082821c905092915050565b600061122e60001984600802611210565b1980831691505092915050565b6000611247838361121d565b9150826002028217905092915050565b61126082610d71565b67ffffffffffffffff81111561127957611278610b7b565b5b611283825461107a565b61128e8282856111ca565b600060209050601f8311600181146112c157600084156112af578287015190505b6112b9858261123b565b865550611321565b601f1984166112cf866110ab565b60005b828110156112f7578489015182556001820191506020850194506020810190506112d2565b868310156113145784890151611310601f89168261121d565b8355505b6001600288020188555050505b505050505050565b600082825260208201905092915050565b7f446561646c696e65206d75737420626520696e20746865206675747572650000600082015250565b6000611370601e83611329565b915061137b8261133a565b602082019050919050565b6000602082019050818103600083015261139f81611363565b9050919050565b7f4e487b7100000000000000000000000000000000000000000000000000000000600052601160045260246000fd5b60006113e0826108da565b91507fffffffffffffffffffffffffffffffffffffffffffffffffffffffffffffffff8203611412576114116113a6565b5b600182019050919050565b6000611428826108da565b9150611433836108da565b925082820390508181111561144b5761144a6113a6565b5b92915050565b7f4e487b7100000000000000000000000000000000000000000000000000000000600052603260045260246000fd5b7f43616d706169676e20697320636c6f7365640000000000000000000000000000600082015250565b60006114b6601283611329565b91506114c182611480565b602082019050919050565b600060208201905081810360008301526114e5816114a9565b9050919050565b7f436f6e747269627574696f6e206d75737420626520677265617465722074686160008201527f6e20300000000000000000000000000000000000000000000000000000000000602082015250565b6000611548602383611329565b9150611553826114ec565b604082019050919050565b600060208201905081810360008301526115778161153b565b9050919050565b600081905092915050565b50565b600061159960008361157e565b91506115a482611589565b600082019050919050565b60006115ba8261158c565b9150819050919050565b60006115cf826108da565b91506115da836108da565b92508282019050808211156115f2576115f16113a6565b5b9291505056fea264697066735822122069f41d818fee75cda2871e49e0508acc6a758804c2e0009637e68d6e9e1e79ab64736f6c634300081b0033",
  "linkReferences": {},
  "deployedLinkReferences": {}
}